{
  "_format": "hh-sol-artifact-1",
  "contractName": "EIVToken",
  "sourceName": "contracts/EIVToken.sol",
  "abi": [
    {
      "inputs": [
        {
          "internalType": "address",
          "name": "_companyWallet",
          "type": "address"
        },
        {
          "internalType": "address",
          "name": "_teamWallet",
          "type": "address"
        },
        {
          "internalType": "address",
          "name": "_advisoryWallet",
          "type": "address"
        },
        {
          "internalType": "address",
          "name": "_communityWallet",
          "type": "address"
        }
      ],
      "stateMutability": "nonpayable",
      "type": "constructor"
    },
    {
      "anonymous": false,
      "inputs": [
        {
          "indexed": true,
          "internalType": "address",
          "name": "owner",
          "type": "address"
        },
        {
          "indexed": true,
          "internalType": "address",
          "name": "spender",
          "type": "address"
        },
        {
          "indexed": false,
          "internalType": "uint256",
          "name": "value",
          "type": "uint256"
        }
      ],
      "name": "Approval",
      "type": "event"
    },
    {
      "anonymous": false,
      "inputs": [
        {
          "indexed": true,
          "internalType": "address",
          "name": "previousOwner",
          "type": "address"
        },
        {
          "indexed": true,
          "internalType": "address",
          "name": "newOwner",
          "type": "address"
        }
      ],
      "name": "OwnershipTransferred",
      "type": "event"
    },
    {
      "anonymous": false,
      "inputs": [
        {
          "indexed": true,
          "internalType": "bytes32",
          "name": "role",
          "type": "bytes32"
        },
        {
          "indexed": true,
          "internalType": "bytes32",
          "name": "previousAdminRole",
          "type": "bytes32"
        },
        {
          "indexed": true,
          "internalType": "bytes32",
          "name": "newAdminRole",
          "type": "bytes32"
        }
      ],
      "name": "RoleAdminChanged",
      "type": "event"
    },
    {
      "anonymous": false,
      "inputs": [
        {
          "indexed": true,
          "internalType": "bytes32",
          "name": "role",
          "type": "bytes32"
        },
        {
          "indexed": true,
          "internalType": "address",
          "name": "account",
          "type": "address"
        },
        {
          "indexed": true,
          "internalType": "address",
          "name": "sender",
          "type": "address"
        }
      ],
      "name": "RoleGranted",
      "type": "event"
    },
    {
      "anonymous": false,
      "inputs": [
        {
          "indexed": true,
          "internalType": "bytes32",
          "name": "role",
          "type": "bytes32"
        },
        {
          "indexed": true,
          "internalType": "address",
          "name": "account",
          "type": "address"
        },
        {
          "indexed": true,
          "internalType": "address",
          "name": "sender",
          "type": "address"
        }
      ],
      "name": "RoleRevoked",
      "type": "event"
    },
    {
      "anonymous": false,
      "inputs": [
        {
          "indexed": true,
          "internalType": "address",
          "name": "from",
          "type": "address"
        },
        {
          "indexed": true,
          "internalType": "address",
          "name": "to",
          "type": "address"
        },
        {
          "indexed": false,
          "internalType": "uint256",
          "name": "value",
          "type": "uint256"
        }
      ],
      "name": "Transfer",
      "type": "event"
    },
    {
      "anonymous": false,
      "inputs": [
        {
          "indexed": true,
          "internalType": "address",
          "name": "claimer",
          "type": "address"
        },
        {
          "indexed": false,
          "internalType": "uint256",
          "name": "price",
          "type": "uint256"
        }
      ],
      "name": "UnlockAdvisorTokens",
      "type": "event"
    },
    {
      "anonymous": false,
      "inputs": [
        {
          "indexed": true,
          "internalType": "address",
          "name": "claimer",
          "type": "address"
        },
        {
          "indexed": false,
          "internalType": "uint256",
          "name": "price",
          "type": "uint256"
        }
      ],
      "name": "UnlockCommunityTokens",
      "type": "event"
    },
    {
      "anonymous": false,
      "inputs": [
        {
          "indexed": true,
          "internalType": "address",
          "name": "claimer",
          "type": "address"
        },
        {
          "indexed": false,
          "internalType": "uint256",
          "name": "price",
          "type": "uint256"
        }
      ],
      "name": "UnlockCompanyTokens",
      "type": "event"
    },
    {
      "anonymous": false,
      "inputs": [
        {
          "indexed": true,
          "internalType": "address",
          "name": "claimer",
          "type": "address"
        },
        {
          "indexed": false,
          "internalType": "uint256",
          "name": "price",
          "type": "uint256"
        }
      ],
      "name": "UnlockTeamTokens",
      "type": "event"
    },
    {
      "inputs": [],
      "name": "ADVISOR_TOKENS",
      "outputs": [
        {
          "internalType": "uint256",
          "name": "",
          "type": "uint256"
        }
      ],
      "stateMutability": "view",
      "type": "function"
    },
    {
      "inputs": [],
      "name": "COMMUNITY_TOKENS",
      "outputs": [
        {
          "internalType": "uint256",
          "name": "",
          "type": "uint256"
        }
      ],
      "stateMutability": "view",
      "type": "function"
    },
    {
      "inputs": [],
      "name": "DEFAULT_ADMIN_ROLE",
      "outputs": [
        {
          "internalType": "bytes32",
          "name": "",
          "type": "bytes32"
        }
      ],
      "stateMutability": "view",
      "type": "function"
    },
    {
      "inputs": [],
      "name": "INITIAL_SUPPLY",
      "outputs": [
        {
          "internalType": "uint256",
          "name": "",
          "type": "uint256"
        }
      ],
      "stateMutability": "view",
      "type": "function"
    },
    {
      "inputs": [],
      "name": "LOCK_PERIOD_ADVISOR",
      "outputs": [
        {
          "internalType": "uint256",
          "name": "",
          "type": "uint256"
        }
      ],
      "stateMutability": "view",
      "type": "function"
    },
    {
      "inputs": [],
      "name": "LOCK_PERIOD_COMMUNITY",
      "outputs": [
        {
          "internalType": "uint256",
          "name": "",
          "type": "uint256"
        }
      ],
      "stateMutability": "view",
      "type": "function"
    },
    {
      "inputs": [],
      "name": "LOCK_PERIOD_TEAM",
      "outputs": [
        {
          "internalType": "uint256",
          "name": "",
          "type": "uint256"
        }
      ],
      "stateMutability": "view",
      "type": "function"
    },
    {
      "inputs": [],
      "name": "MINTER_ROLE",
      "outputs": [
        {
          "internalType": "bytes32",
          "name": "",
          "type": "bytes32"
        }
      ],
      "stateMutability": "view",
      "type": "function"
    },
    {
      "inputs": [],
      "name": "RELEASE_PERIOD_ADVISOR",
      "outputs": [
        {
          "internalType": "uint256",
          "name": "",
          "type": "uint256"
        }
      ],
      "stateMutability": "view",
      "type": "function"
    },
    {
      "inputs": [],
      "name": "RELEASE_PERIOD_COMMUNITY",
      "outputs": [
        {
          "internalType": "uint256",
          "name": "",
          "type": "uint256"
        }
      ],
      "stateMutability": "view",
      "type": "function"
    },
    {
      "inputs": [],
      "name": "RELEASE_PERIOD_TEAM",
      "outputs": [
        {
          "internalType": "uint256",
          "name": "",
          "type": "uint256"
        }
      ],
      "stateMutability": "view",
      "type": "function"
    },
    {
      "inputs": [],
      "name": "TEAM_TOKENS",
      "outputs": [
        {
          "internalType": "uint256",
          "name": "",
          "type": "uint256"
        }
      ],
      "stateMutability": "view",
      "type": "function"
    },
    {
      "inputs": [],
      "name": "TGE_TIMESTAMP",
      "outputs": [
        {
          "internalType": "uint256",
          "name": "",
          "type": "uint256"
        }
      ],
      "stateMutability": "view",
      "type": "function"
    },
    {
      "inputs": [],
      "name": "UNLOCKED_TOKENS",
      "outputs": [
        {
          "internalType": "uint256",
          "name": "",
          "type": "uint256"
        }
      ],
      "stateMutability": "view",
      "type": "function"
    },
    {
      "inputs": [],
      "name": "advisoryWallet",
      "outputs": [
        {
          "internalType": "address",
          "name": "",
          "type": "address"
        }
      ],
      "stateMutability": "view",
      "type": "function"
    },
    {
      "inputs": [
        {
          "internalType": "address",
          "name": "owner",
          "type": "address"
        },
        {
          "internalType": "address",
          "name": "spender",
          "type": "address"
        }
      ],
      "name": "allowance",
      "outputs": [
        {
          "internalType": "uint256",
          "name": "",
          "type": "uint256"
        }
      ],
      "stateMutability": "view",
      "type": "function"
    },
    {
      "inputs": [
        {
          "internalType": "address",
          "name": "spender",
          "type": "address"
        },
        {
          "internalType": "uint256",
          "name": "amount",
          "type": "uint256"
        }
      ],
      "name": "approve",
      "outputs": [
        {
          "internalType": "bool",
          "name": "",
          "type": "bool"
        }
      ],
      "stateMutability": "nonpayable",
      "type": "function"
    },
    {
      "inputs": [
        {
          "internalType": "address",
          "name": "account",
          "type": "address"
        }
      ],
      "name": "balanceOf",
      "outputs": [
        {
          "internalType": "uint256",
          "name": "",
          "type": "uint256"
        }
      ],
      "stateMutability": "view",
      "type": "function"
    },
    {
      "inputs": [
        {
          "internalType": "uint256",
          "name": "amount",
          "type": "uint256"
        }
      ],
      "name": "burn",
      "outputs": [],
      "stateMutability": "nonpayable",
      "type": "function"
    },
    {
      "inputs": [
        {
          "internalType": "address",
          "name": "account",
          "type": "address"
        },
        {
          "internalType": "uint256",
          "name": "amount",
          "type": "uint256"
        }
      ],
      "name": "burnFrom",
      "outputs": [],
      "stateMutability": "nonpayable",
      "type": "function"
    },
    {
      "inputs": [],
      "name": "claimTokens",
      "outputs": [],
      "stateMutability": "nonpayable",
      "type": "function"
    },
    {
      "inputs": [],
      "name": "communityWallet",
      "outputs": [
        {
          "internalType": "address",
          "name": "",
          "type": "address"
        }
      ],
      "stateMutability": "view",
      "type": "function"
    },
    {
      "inputs": [],
      "name": "companyWallet",
      "outputs": [
        {
          "internalType": "address",
          "name": "",
          "type": "address"
        }
      ],
      "stateMutability": "view",
      "type": "function"
    },
    {
      "inputs": [],
      "name": "decimals",
      "outputs": [
        {
          "internalType": "uint8",
          "name": "",
          "type": "uint8"
        }
      ],
      "stateMutability": "view",
      "type": "function"
    },
    {
      "inputs": [
        {
          "internalType": "address",
          "name": "spender",
          "type": "address"
        },
        {
          "internalType": "uint256",
          "name": "subtractedValue",
          "type": "uint256"
        }
      ],
      "name": "decreaseAllowance",
      "outputs": [
        {
          "internalType": "bool",
          "name": "",
          "type": "bool"
        }
      ],
      "stateMutability": "nonpayable",
      "type": "function"
    },
    {
      "inputs": [
        {
          "internalType": "bytes32",
          "name": "role",
          "type": "bytes32"
        }
      ],
      "name": "getRoleAdmin",
      "outputs": [
        {
          "internalType": "bytes32",
          "name": "",
          "type": "bytes32"
        }
      ],
      "stateMutability": "view",
      "type": "function"
    },
    {
      "inputs": [
        {
          "internalType": "bytes32",
          "name": "role",
          "type": "bytes32"
        },
        {
          "internalType": "address",
          "name": "account",
          "type": "address"
        }
      ],
      "name": "grantRole",
      "outputs": [],
      "stateMutability": "nonpayable",
      "type": "function"
    },
    {
      "inputs": [
        {
          "internalType": "bytes32",
          "name": "role",
          "type": "bytes32"
        },
        {
          "internalType": "address",
          "name": "account",
          "type": "address"
        }
      ],
      "name": "hasRole",
      "outputs": [
        {
          "internalType": "bool",
          "name": "",
          "type": "bool"
        }
      ],
      "stateMutability": "view",
      "type": "function"
    },
    {
      "inputs": [
        {
          "internalType": "address",
          "name": "spender",
          "type": "address"
        },
        {
          "internalType": "uint256",
          "name": "addedValue",
          "type": "uint256"
        }
      ],
      "name": "increaseAllowance",
      "outputs": [
        {
          "internalType": "bool",
          "name": "",
          "type": "bool"
        }
      ],
      "stateMutability": "nonpayable",
      "type": "function"
    },
    {
      "inputs": [],
      "name": "lockedAdvisorBalance",
      "outputs": [
        {
          "internalType": "uint256",
          "name": "",
          "type": "uint256"
        }
      ],
      "stateMutability": "view",
      "type": "function"
    },
    {
      "inputs": [],
      "name": "lockedCommunityBalance",
      "outputs": [
        {
          "internalType": "uint256",
          "name": "",
          "type": "uint256"
        }
      ],
      "stateMutability": "view",
      "type": "function"
    },
    {
      "inputs": [],
      "name": "lockedCompanyBalance",
      "outputs": [
        {
          "internalType": "uint256",
          "name": "",
          "type": "uint256"
        }
      ],
      "stateMutability": "view",
      "type": "function"
    },
    {
      "inputs": [],
      "name": "lockedTeamBalance",
      "outputs": [
        {
          "internalType": "uint256",
          "name": "",
          "type": "uint256"
        }
      ],
      "stateMutability": "view",
      "type": "function"
    },
    {
      "inputs": [],
      "name": "name",
      "outputs": [
        {
          "internalType": "string",
          "name": "",
          "type": "string"
        }
      ],
      "stateMutability": "view",
      "type": "function"
    },
    {
      "inputs": [],
      "name": "owner",
      "outputs": [
        {
          "internalType": "address",
          "name": "",
          "type": "address"
        }
      ],
      "stateMutability": "view",
      "type": "function"
    },
    {
      "inputs": [],
      "name": "renounceOwnership",
      "outputs": [],
      "stateMutability": "nonpayable",
      "type": "function"
    },
    {
      "inputs": [
        {
          "internalType": "bytes32",
          "name": "role",
          "type": "bytes32"
        },
        {
          "internalType": "address",
          "name": "account",
          "type": "address"
        }
      ],
      "name": "renounceRole",
      "outputs": [],
      "stateMutability": "nonpayable",
      "type": "function"
    },
    {
      "inputs": [
        {
          "internalType": "bytes32",
          "name": "role",
          "type": "bytes32"
        },
        {
          "internalType": "address",
          "name": "account",
          "type": "address"
        }
      ],
      "name": "revokeRole",
      "outputs": [],
      "stateMutability": "nonpayable",
      "type": "function"
    },
    {
      "inputs": [
        {
          "internalType": "address",
          "name": "_advisoryWallet",
          "type": "address"
        }
      ],
      "name": "setAdvisoryWallet",
      "outputs": [],
      "stateMutability": "nonpayable",
      "type": "function"
    },
    {
      "inputs": [
        {
          "internalType": "address",
          "name": "_communityWallet",
          "type": "address"
        }
      ],
      "name": "setCommunityWallet",
      "outputs": [],
      "stateMutability": "nonpayable",
      "type": "function"
    },
    {
      "inputs": [
        {
          "internalType": "address",
          "name": "_companyWallet",
          "type": "address"
        }
      ],
      "name": "setCompanyWallet",
      "outputs": [],
      "stateMutability": "nonpayable",
      "type": "function"
    },
    {
      "inputs": [
        {
          "internalType": "address",
          "name": "_teamWallet",
          "type": "address"
        }
      ],
      "name": "setTeamWallet",
      "outputs": [],
      "stateMutability": "nonpayable",
      "type": "function"
    },
    {
      "inputs": [
        {
          "internalType": "bytes4",
          "name": "interfaceId",
          "type": "bytes4"
        }
      ],
      "name": "supportsInterface",
      "outputs": [
        {
          "internalType": "bool",
          "name": "",
          "type": "bool"
        }
      ],
      "stateMutability": "view",
      "type": "function"
    },
    {
      "inputs": [],
      "name": "symbol",
      "outputs": [
        {
          "internalType": "string",
          "name": "",
          "type": "string"
        }
      ],
      "stateMutability": "view",
      "type": "function"
    },
    {
      "inputs": [],
      "name": "teamWallet",
      "outputs": [
        {
          "internalType": "address",
          "name": "",
          "type": "address"
        }
      ],
      "stateMutability": "view",
      "type": "function"
    },
    {
      "inputs": [],
      "name": "totalSupply",
      "outputs": [
        {
          "internalType": "uint256",
          "name": "",
          "type": "uint256"
        }
      ],
      "stateMutability": "view",
      "type": "function"
    },
    {
      "inputs": [
        {
          "internalType": "address",
          "name": "to",
          "type": "address"
        },
        {
          "internalType": "uint256",
          "name": "amount",
          "type": "uint256"
        }
      ],
      "name": "transfer",
      "outputs": [
        {
          "internalType": "bool",
          "name": "",
          "type": "bool"
        }
      ],
      "stateMutability": "nonpayable",
      "type": "function"
    },
    {
      "inputs": [
        {
          "internalType": "address",
          "name": "from",
          "type": "address"
        },
        {
          "internalType": "address",
          "name": "to",
          "type": "address"
        },
        {
          "internalType": "uint256",
          "name": "amount",
          "type": "uint256"
        }
      ],
      "name": "transferFrom",
      "outputs": [
        {
          "internalType": "bool",
          "name": "",
          "type": "bool"
        }
      ],
      "stateMutability": "nonpayable",
      "type": "function"
    },
    {
      "inputs": [
        {
          "internalType": "address",
          "name": "newOwner",
          "type": "address"
        }
      ],
      "name": "transferOwnership",
      "outputs": [],
      "stateMutability": "nonpayable",
      "type": "function"
    },
    {
      "inputs": [],
      "name": "unlockAdvisorTokens",
      "outputs": [],
      "stateMutability": "nonpayable",
      "type": "function"
    },
    {
      "inputs": [],
      "name": "unlockCommunityTokens",
      "outputs": [],
      "stateMutability": "nonpayable",
      "type": "function"
    },
    {
      "inputs": [],
      "name": "unlockTeamTokens",
      "outputs": [],
      "stateMutability": "nonpayable",
      "type": "function"
    }
  ],
  "bytecode": "0x60e06040523480156200001157600080fd5b506040516200487a3803806200487a8339818101604052810190620000379190620005f6565b6040518060400160405280600981526020017f45495620546f6b656e00000000000000000000000000000000000000000000008152506040518060400160405280600381526020017f45495600000000000000000000000000000000000000000000000000000000008152508160039080519060200190620000bb9291906200052f565b508060049080519060200190620000d49291906200052f565b505050620000f7620000eb620002ee60201b60201c565b620002f660201b60201c565b6200010c6000801b33620003bc60201b60201c565b6200013e7f9f2df0fed2c77648de5860a4cc508cd0818c85b8b8a1ab4ceeef8d981c8956a633620003bc60201b60201c565b6b107a9f01fbda8e036c000000600b819055506b033b2e3c9fd0803ce8000000600c819055506b02e87669c308736a04000000600d819055506b09b18ab5df7180b6b8000000600e819055506302c7ea0063621c8100620001a0919062000662565b608081815250506301da9c0063621c8100620001bd919062000662565b60a0818152505062ed4e0063621c8100620001d9919062000662565b60c0818152505083600760006101000a81548173ffffffffffffffffffffffffffffffffffffffff021916908373ffffffffffffffffffffffffffffffffffffffff16021790555082600860006101000a81548173ffffffffffffffffffffffffffffffffffffffff021916908373ffffffffffffffffffffffffffffffffffffffff16021790555081600960006101000a81548173ffffffffffffffffffffffffffffffffffffffff021916908373ffffffffffffffffffffffffffffffffffffffff16021790555080600a60006101000a81548173ffffffffffffffffffffffffffffffffffffffff021916908373ffffffffffffffffffffffffffffffffffffffff16021790555050505050620007ab565b600033905090565b6000600660009054906101000a900473ffffffffffffffffffffffffffffffffffffffff16905081600660006101000a81548173ffffffffffffffffffffffffffffffffffffffff021916908373ffffffffffffffffffffffffffffffffffffffff1602179055508173ffffffffffffffffffffffffffffffffffffffff168173ffffffffffffffffffffffffffffffffffffffff167f8be0079c531659141344cd1fd0a4f28419497f9722a3daafe3b4186f6b6457e060405160405180910390a35050565b620003ce8282620003d260201b60201c565b5050565b620003e48282620004c460201b60201c565b620004c05760016005600084815260200190815260200160002060000160008373ffffffffffffffffffffffffffffffffffffffff1673ffffffffffffffffffffffffffffffffffffffff16815260200190815260200160002060006101000a81548160ff02191690831515021790555062000465620002ee60201b60201c565b73ffffffffffffffffffffffffffffffffffffffff168173ffffffffffffffffffffffffffffffffffffffff16837f2f8788117e7eff1d82e926ec794901d17c78024a50270940304540a733656f0d60405160405180910390a45b5050565b60006005600084815260200190815260200160002060000160008373ffffffffffffffffffffffffffffffffffffffff1673ffffffffffffffffffffffffffffffffffffffff16815260200190815260200160002060009054906101000a900460ff16905092915050565b8280546200053d90620006fd565b90600052602060002090601f016020900481019282620005615760008555620005ad565b82601f106200057c57805160ff1916838001178555620005ad565b82800160010185558215620005ad579182015b82811115620005ac5782518255916020019190600101906200058f565b5b509050620005bc9190620005c0565b5090565b5b80821115620005db576000816000905550600101620005c1565b5090565b600081519050620005f08162000791565b92915050565b600080600080608085870312156200060d57600080fd5b60006200061d87828801620005df565b94505060206200063087828801620005df565b93505060406200064387828801620005df565b92505060606200065687828801620005df565b91505092959194509250565b60006200066f82620006f3565b91506200067c83620006f3565b9250827fffffffffffffffffffffffffffffffffffffffffffffffffffffffffffffffff03821115620006b457620006b362000733565b5b828201905092915050565b6000620006cc82620006d3565b9050919050565b600073ffffffffffffffffffffffffffffffffffffffff82169050919050565b6000819050919050565b600060028204905060018216806200071657607f821691505b602082108114156200072d576200072c62000762565b5b50919050565b7f4e487b7100000000000000000000000000000000000000000000000000000000600052601160045260246000fd5b7f4e487b7100000000000000000000000000000000000000000000000000000000600052602260045260246000fd5b6200079c81620006bf565b8114620007a857600080fd5b50565b60805160a05160c0516140756200080560003960008181610b5901528181610bce0152611071015260008181611032015281816116010152611676015260008181610ff301528181611c6e0152611ce301526140756000f3fe608060405234801561001057600080fd5b506004361061030c5760003560e01c806370a082311161019d578063a457c2d7116100e9578063d547741f116100a2578063e2130d1e1161007c578063e2130d1e14610903578063e29121de1461090d578063f2fde38b1461092b578063f97a229b146109475761030c565b8063d547741f14610899578063dc493790146108b5578063dd62ed3e146108d35761030c565b8063a457c2d7146107c1578063a9059cbb146107f1578063b26e92a214610821578063c75748391461083f578063d06e31cb1461085d578063d53913931461087b5761030c565b806385d6bb811161015657806395d89b411161013057806395d89b411461074b5780639828469914610769578063a217fddf14610787578063a3c441e7146107a55761030c565b806385d6bb81146106e15780638da5cb5b146106fd57806391d148541461071b5761030c565b806370a0823114610645578063715018a61461067557806379cc67901461067f5780637c50b4c51461069b5780637e8ca5f6146106b957806381ff4d0b146106c35761030c565b80632f2ff15d1161025c5780633b3e8f951161021557806359927044116101ef57806359927044146105cd5780635b84d899146105eb5780636e3c8034146106095780636f5c2622146106275761030c565b80633b3e8f951461058957806342966c68146105a757806348c54b9d146105c35761030c565b80632f2ff15d146104c75780632ff2e9dc146104e3578063313ce5671461050157806336568abe1461051f578063395093511461053b57806339565cdb1461056b5761030c565b80631dfe3a12116102c9578063248a9ca3116102a3578063248a9ca31461043f578063266572de1461046f578063268e41691461048d57806328831187146104ab5761030c565b80631dfe3a12146103e75780631ec32d15146103f157806323b872dd1461040f5761030c565b806301ffc9a71461031157806306fdde0314610341578063095ea7b31461035f5780631525ff7d1461038f57806318160ddd146103ab5780631d523047146103c9575b600080fd5b61032b60048036038101906103269190612fef565b610965565b6040516103389190613470565b60405180910390f35b6103496109df565b60405161035691906134a6565b60405180910390f35b61037960048036038101906103749190612f4e565b610a71565b6040516103869190613470565b60405180910390f35b6103a960048036038101906103a49190612e9a565b610a94565b005b6103b3610b0b565b6040516103c09190613768565b60405180910390f35b6103d1610b15565b6040516103de9190613768565b60405180910390f35b6103ef610b25565b005b6103f9610d1f565b6040516104069190613455565b60405180910390f35b61042960048036038101906104249190612eff565b610d45565b6040516104369190613470565b60405180910390f35b61045960048036038101906104549190612f8a565b610d74565b604051610466919061348b565b60405180910390f35b610477610d94565b6040516104849190613768565b60405180910390f35b610495610d9b565b6040516104a29190613768565b60405180910390f35b6104c560048036038101906104c09190612e9a565b610da3565b005b6104e160048036038101906104dc9190612fb3565b610e1a565b005b6104eb610e43565b6040516104f89190613768565b60405180910390f35b610509610e53565b6040516105169190613783565b60405180910390f35b61053960048036038101906105349190612fb3565b610e5c565b005b61055560048036038101906105509190612f4e565b610edf565b6040516105629190613470565b60405180910390f35b610573610f89565b6040516105809190613768565b60405180910390f35b610591610f91565b60405161059e9190613768565b60405180910390f35b6105c160048036038101906105bc9190613018565b610f99565b005b6105cb610fad565b005b6105d561148b565b6040516105e29190613455565b60405180910390f35b6105f36114b1565b6040516106009190613768565b60405180910390f35b6106116114bb565b60405161061e9190613768565b60405180910390f35b61062f6114c3565b60405161063c9190613768565b60405180910390f35b61065f600480360381019061065a9190612e9a565b6114cd565b60405161066c9190613768565b60405180910390f35b61067d611515565b005b61069960048036038101906106949190612f4e565b61159d565b005b6106a36115bd565b6040516106b09190613768565b60405180910390f35b6106c16115cd565b005b6106cb6117c7565b6040516106d89190613768565b60405180910390f35b6106fb60048036038101906106f69190612e9a565b6117d7565b005b61070561184e565b6040516107129190613455565b60405180910390f35b61073560048036038101906107309190612fb3565b611878565b6040516107429190613470565b60405180910390f35b6107536118e3565b60405161076091906134a6565b60405180910390f35b610771611975565b60405161077e9190613768565b60405180910390f35b61078f61197d565b60405161079c919061348b565b60405180910390f35b6107bf60048036038101906107ba9190612e9a565b611984565b005b6107db60048036038101906107d69190612f4e565b6119fb565b6040516107e89190613470565b60405180910390f35b61080b60048036038101906108069190612f4e565b611ae5565b6040516108189190613470565b60405180910390f35b610829611b08565b6040516108369190613768565b60405180910390f35b610847611b12565b6040516108549190613455565b60405180910390f35b610865611b38565b6040516108729190613768565b60405180910390f35b610883611b40565b604051610890919061348b565b60405180910390f35b6108b360048036038101906108ae9190612fb3565b611b64565b005b6108bd611b8d565b6040516108ca9190613455565b60405180910390f35b6108ed60048036038101906108e89190612ec3565b611bb3565b6040516108fa9190613768565b60405180910390f35b61090b611c3a565b005b610915611e34565b6040516109229190613768565b60405180910390f35b61094560048036038101906109409190612e9a565b611e44565b005b61094f611f3c565b60405161095c9190613768565b60405180910390f35b60007f7965db0b000000000000000000000000000000000000000000000000000000007bffffffffffffffffffffffffffffffffffffffffffffffffffffffff1916827bffffffffffffffffffffffffffffffffffffffffffffffffffffffff191614806109d857506109d782611f46565b5b9050919050565b6060600380546109ee906139c2565b80601f0160208091040260200160405190810160405280929190818152602001828054610a1a906139c2565b8015610a675780601f10610a3c57610100808354040283529160200191610a67565b820191906000526020600020905b815481529060010190602001808311610a4a57829003601f168201915b5050505050905090565b600080610a7c611fb0565b9050610a89818585611fb8565b600191505092915050565b7f9f2df0fed2c77648de5860a4cc508cd0818c85b8b8a1ab4ceeef8d981c8956a6610ac681610ac1611fb0565b612183565b81600860006101000a81548173ffffffffffffffffffffffffffffffffffffffff021916908373ffffffffffffffffffffffffffffffffffffffff1602179055505050565b6000600254905090565b6b09b18ab5df7180b6b800000081565b7f9f2df0fed2c77648de5860a4cc508cd0818c85b8b8a1ab4ceeef8d981c8956a6610b5781610b52611fb0565b612183565b7f0000000000000000000000000000000000000000000000000000000000000000421015610bba576040517f08c379a0000000000000000000000000000000000000000000000000000000008152600401610bb1906136c8565b60405180910390fd5b6000610bf76b09b18ab5df7180b6b80000007f00000000000000000000000000000000000000000000000000000000000000006301e13380612220565b90506000600e546b09b18ab5df7180b6b8000000610c1591906138a6565b82610c2091906138a6565b905060008111610c65576040517f08c379a0000000000000000000000000000000000000000000000000000000008152600401610c5c90613708565b60405180910390fd5b80600e6000828254610c7791906138a6565b92505081905550610caa600a60009054906101000a900473ffffffffffffffffffffffffffffffffffffffff1682612275565b600a60009054906101000a900473ffffffffffffffffffffffffffffffffffffffff1673ffffffffffffffffffffffffffffffffffffffff167f149056fd5e81d1373a707d130e5eaf7941d6407dc8553b3d66471e9834421f4382604051610d129190613768565b60405180910390a2505050565b600760009054906101000a900473ffffffffffffffffffffffffffffffffffffffff1681565b600080610d50611fb0565b9050610d5d8582856123d5565b610d68858585612461565b60019150509392505050565b600060056000838152602001908152602001600020600101549050919050565b62ed4e0081565b6301da9c0081565b7f9f2df0fed2c77648de5860a4cc508cd0818c85b8b8a1ab4ceeef8d981c8956a6610dd581610dd0611fb0565b612183565b81600760006101000a81548173ffffffffffffffffffffffffffffffffffffffff021916908373ffffffffffffffffffffffffffffffffffffffff1602179055505050565b610e2382610d74565b610e3481610e2f611fb0565b612183565b610e3e83836126e2565b505050565b6b204fce5e3e2502611000000081565b60006012905090565b610e64611fb0565b73ffffffffffffffffffffffffffffffffffffffff168173ffffffffffffffffffffffffffffffffffffffff1614610ed1576040517f08c379a0000000000000000000000000000000000000000000000000000000008152600401610ec890613728565b60405180910390fd5b610edb82826127c3565b5050565b600080610eea611fb0565b9050610f7e818585600160008673ffffffffffffffffffffffffffffffffffffffff1673ffffffffffffffffffffffffffffffffffffffff16815260200190815260200160002060008973ffffffffffffffffffffffffffffffffffffffff1673ffffffffffffffffffffffffffffffffffffffff16815260200190815260200160002054610f7991906137c5565b611fb8565b600191505092915050565b63621c810081565b6305a39a8081565b610faa610fa4611fb0565b826128a5565b50565b7f9f2df0fed2c77648de5860a4cc508cd0818c85b8b8a1ab4ceeef8d981c8956a6610fdf81610fda611fb0565b612183565b600061101c6b033b2e3c9fd0803ce80000007f00000000000000000000000000000000000000000000000000000000000000006305a39a80612220565b9050600061105b6b02e87669c308736a040000007f00000000000000000000000000000000000000000000000000000000000000006302d1cd40612220565b9050600061109a6b09b18ab5df7180b6b80000007f00000000000000000000000000000000000000000000000000000000000000006301e13380612220565b90506000600b5490506000600c546b033b2e3c9fd0803ce80000006110bf91906138a6565b856110ca91906138a6565b90506000600d546b02e87669c308736a040000006110e891906138a6565b856110f391906138a6565b90506000600e546b09b18ab5df7180b6b800000061111191906138a6565b8561111c91906138a6565b905060008183858761112e91906137c5565b61113891906137c5565b61114291906137c5565b905060008111611187576040517f08c379a000000000000000000000000000000000000000000000000000000000815260040161117e90613508565b60405180910390fd5b83600c600082825461119991906138a6565b9250508190555082600d60008282546111b291906138a6565b9250508190555081600e60008282546111cb91906138a6565b925050819055506000600b819055506111e43082612275565b600085111561128b5761121a30600760009054906101000a900473ffffffffffffffffffffffffffffffffffffffff1687612461565b600760009054906101000a900473ffffffffffffffffffffffffffffffffffffffff1673ffffffffffffffffffffffffffffffffffffffff167f25d5f5ee850b664ccf31fc284b0c5e3985d10245f0486cb7874e4f7c456d52a5866040516112829190613768565b60405180910390a25b6000841115611332576112c130600860009054906101000a900473ffffffffffffffffffffffffffffffffffffffff1686612461565b600860009054906101000a900473ffffffffffffffffffffffffffffffffffffffff1673ffffffffffffffffffffffffffffffffffffffff167fc6ed111f8bd14bd22a954c62c2799ec5f9144d78a9b739ee37ee9a00e6c81d66856040516113299190613768565b60405180910390a25b60008211156113d95761136830600a60009054906101000a900473ffffffffffffffffffffffffffffffffffffffff1684612461565b600a60009054906101000a900473ffffffffffffffffffffffffffffffffffffffff1673ffffffffffffffffffffffffffffffffffffffff167f149056fd5e81d1373a707d130e5eaf7941d6407dc8553b3d66471e9834421f43836040516113d09190613768565b60405180910390a25b60008311156114805761140f30600960009054906101000a900473ffffffffffffffffffffffffffffffffffffffff1685612461565b600960009054906101000a900473ffffffffffffffffffffffffffffffffffffffff1673ffffffffffffffffffffffffffffffffffffffff167f7ce5f3f619be69c6c0f30f3bbd013fbefe37c19491d53fdc21b003f980f40c1e846040516114779190613768565b60405180910390a25b505050505050505050565b600860009054906101000a900473ffffffffffffffffffffffffffffffffffffffff1681565b6000600d54905090565b6301e1338081565b6000600c54905090565b60008060008373ffffffffffffffffffffffffffffffffffffffff1673ffffffffffffffffffffffffffffffffffffffff168152602001908152602001600020549050919050565b61151d611fb0565b73ffffffffffffffffffffffffffffffffffffffff1661153b61184e565b73ffffffffffffffffffffffffffffffffffffffff1614611591576040517f08c379a000000000000000000000000000000000000000000000000000000000815260040161158890613648565b60405180910390fd5b61159b6000612a7c565b565b6115af826115a9611fb0565b836123d5565b6115b982826128a5565b5050565b6b107a9f01fbda8e036c00000081565b7f9f2df0fed2c77648de5860a4cc508cd0818c85b8b8a1ab4ceeef8d981c8956a66115ff816115fa611fb0565b612183565b7f0000000000000000000000000000000000000000000000000000000000000000421015611662576040517f08c379a0000000000000000000000000000000000000000000000000000000008152600401611659906135e8565b60405180910390fd5b600061169f6b02e87669c308736a040000007f00000000000000000000000000000000000000000000000000000000000000006302d1cd40612220565b90506000600d546b02e87669c308736a040000006116bd91906138a6565b826116c891906138a6565b90506000811161170d576040517f08c379a000000000000000000000000000000000000000000000000000000000815260040161170490613628565b60405180910390fd5b80600d600082825461171f91906138a6565b92505081905550611752600960009054906101000a900473ffffffffffffffffffffffffffffffffffffffff1682612275565b600960009054906101000a900473ffffffffffffffffffffffffffffffffffffffff1673ffffffffffffffffffffffffffffffffffffffff167f7ce5f3f619be69c6c0f30f3bbd013fbefe37c19491d53fdc21b003f980f40c1e826040516117ba9190613768565b60405180910390a2505050565b6b033b2e3c9fd0803ce800000081565b7f9f2df0fed2c77648de5860a4cc508cd0818c85b8b8a1ab4ceeef8d981c8956a661180981611804611fb0565b612183565b81600a60006101000a81548173ffffffffffffffffffffffffffffffffffffffff021916908373ffffffffffffffffffffffffffffffffffffffff1602179055505050565b6000600660009054906101000a900473ffffffffffffffffffffffffffffffffffffffff16905090565b60006005600084815260200190815260200160002060000160008373ffffffffffffffffffffffffffffffffffffffff1673ffffffffffffffffffffffffffffffffffffffff16815260200190815260200160002060009054906101000a900460ff16905092915050565b6060600480546118f2906139c2565b80601f016020809104026020016040519081016040528092919081815260200182805461191e906139c2565b801561196b5780601f106119405761010080835404028352916020019161196b565b820191906000526020600020905b81548152906001019060200180831161194e57829003601f168201915b5050505050905090565b6302c7ea0081565b6000801b81565b7f9f2df0fed2c77648de5860a4cc508cd0818c85b8b8a1ab4ceeef8d981c8956a66119b6816119b1611fb0565b612183565b81600960006101000a81548173ffffffffffffffffffffffffffffffffffffffff021916908373ffffffffffffffffffffffffffffffffffffffff1602179055505050565b600080611a06611fb0565b90506000600160008373ffffffffffffffffffffffffffffffffffffffff1673ffffffffffffffffffffffffffffffffffffffff16815260200190815260200160002060008673ffffffffffffffffffffffffffffffffffffffff1673ffffffffffffffffffffffffffffffffffffffff16815260200190815260200160002054905083811015611acc576040517f08c379a0000000000000000000000000000000000000000000000000000000008152600401611ac3906136e8565b60405180910390fd5b611ad98286868403611fb8565b60019250505092915050565b600080611af0611fb0565b9050611afd818585612461565b600191505092915050565b6000600e54905090565b600a60009054906101000a900473ffffffffffffffffffffffffffffffffffffffff1681565b6302d1cd4081565b7f9f2df0fed2c77648de5860a4cc508cd0818c85b8b8a1ab4ceeef8d981c8956a681565b611b6d82610d74565b611b7e81611b79611fb0565b612183565b611b8883836127c3565b505050565b600960009054906101000a900473ffffffffffffffffffffffffffffffffffffffff1681565b6000600160008473ffffffffffffffffffffffffffffffffffffffff1673ffffffffffffffffffffffffffffffffffffffff16815260200190815260200160002060008373ffffffffffffffffffffffffffffffffffffffff1673ffffffffffffffffffffffffffffffffffffffff16815260200190815260200160002054905092915050565b7f9f2df0fed2c77648de5860a4cc508cd0818c85b8b8a1ab4ceeef8d981c8956a6611c6c81611c67611fb0565b612183565b7f0000000000000000000000000000000000000000000000000000000000000000421015611ccf576040517f08c379a0000000000000000000000000000000000000000000000000000000008152600401611cc690613548565b60405180910390fd5b6000611d0c6b033b2e3c9fd0803ce80000007f00000000000000000000000000000000000000000000000000000000000000006305a39a80612220565b90506000600c546b033b2e3c9fd0803ce8000000611d2a91906138a6565b82611d3591906138a6565b905060008111611d7a576040517f08c379a0000000000000000000000000000000000000000000000000000000008152600401611d7190613568565b60405180910390fd5b80600c6000828254611d8c91906138a6565b92505081905550611dbf600860009054906101000a900473ffffffffffffffffffffffffffffffffffffffff1682612275565b600860009054906101000a900473ffffffffffffffffffffffffffffffffffffffff1673ffffffffffffffffffffffffffffffffffffffff167fc6ed111f8bd14bd22a954c62c2799ec5f9144d78a9b739ee37ee9a00e6c81d6682604051611e279190613768565b60405180910390a2505050565b6b02e87669c308736a0400000081565b611e4c611fb0565b73ffffffffffffffffffffffffffffffffffffffff16611e6a61184e565b73ffffffffffffffffffffffffffffffffffffffff1614611ec0576040517f08c379a0000000000000000000000000000000000000000000000000000000008152600401611eb790613648565b60405180910390fd5b600073ffffffffffffffffffffffffffffffffffffffff168173ffffffffffffffffffffffffffffffffffffffff161415611f30576040517f08c379a0000000000000000000000000000000000000000000000000000000008152600401611f2790613588565b60405180910390fd5b611f3981612a7c565b50565b6000600b54905090565b60007f01ffc9a7000000000000000000000000000000000000000000000000000000007bffffffffffffffffffffffffffffffffffffffffffffffffffffffff1916827bffffffffffffffffffffffffffffffffffffffffffffffffffffffff1916149050919050565b600033905090565b600073ffffffffffffffffffffffffffffffffffffffff168373ffffffffffffffffffffffffffffffffffffffff161415612028576040517f08c379a000000000000000000000000000000000000000000000000000000000815260040161201f906136a8565b60405180910390fd5b600073ffffffffffffffffffffffffffffffffffffffff168273ffffffffffffffffffffffffffffffffffffffff161415612098576040517f08c379a000000000000000000000000000000000000000000000000000000000815260040161208f906135a8565b60405180910390fd5b80600160008573ffffffffffffffffffffffffffffffffffffffff1673ffffffffffffffffffffffffffffffffffffffff16815260200190815260200160002060008473ffffffffffffffffffffffffffffffffffffffff1673ffffffffffffffffffffffffffffffffffffffff168152602001908152602001600020819055508173ffffffffffffffffffffffffffffffffffffffff168373ffffffffffffffffffffffffffffffffffffffff167f8c5be1e5ebec7d5bd14f71427d1e84f3dd0314c0f7b2291e5b200ac8c7c3b925836040516121769190613768565b60405180910390a3505050565b61218d8282611878565b61221c576121b28173ffffffffffffffffffffffffffffffffffffffff166014612b42565b6121c08360001c6020612b42565b6040516020016121d192919061341b565b6040516020818303038152906040526040517f08c379a000000000000000000000000000000000000000000000000000000000815260040161221391906134a6565b60405180910390fd5b5050565b600082421015612233576000905061226e565b6000834261224191906138a6565b9050828110612253578491505061226e565b828186612260919061384c565b61226a919061381b565b9150505b9392505050565b600073ffffffffffffffffffffffffffffffffffffffff168273ffffffffffffffffffffffffffffffffffffffff1614156122e5576040517f08c379a00000000000000000000000000000000000000000000000000000000081526004016122dc90613748565b60405180910390fd5b6122f160008383612e3c565b806002600082825461230391906137c5565b92505081905550806000808473ffffffffffffffffffffffffffffffffffffffff1673ffffffffffffffffffffffffffffffffffffffff168152602001908152602001600020600082825461235891906137c5565b925050819055508173ffffffffffffffffffffffffffffffffffffffff16600073ffffffffffffffffffffffffffffffffffffffff167fddf252ad1be2c89b69c2b068fc378daa952ba7f163c4a11628f55a4df523b3ef836040516123bd9190613768565b60405180910390a36123d160008383612e41565b5050565b60006123e18484611bb3565b90507fffffffffffffffffffffffffffffffffffffffffffffffffffffffffffffffff811461245b578181101561244d576040517f08c379a0000000000000000000000000000000000000000000000000000000008152600401612444906135c8565b60405180910390fd5b61245a8484848403611fb8565b5b50505050565b600073ffffffffffffffffffffffffffffffffffffffff168373ffffffffffffffffffffffffffffffffffffffff1614156124d1576040517f08c379a00000000000000000000000000000000000000000000000000000000081526004016124c890613688565b60405180910390fd5b600073ffffffffffffffffffffffffffffffffffffffff168273ffffffffffffffffffffffffffffffffffffffff161415612541576040517f08c379a0000000000000000000000000000000000000000000000000000000008152600401612538906134e8565b60405180910390fd5b61254c838383612e3c565b60008060008573ffffffffffffffffffffffffffffffffffffffff1673ffffffffffffffffffffffffffffffffffffffff168152602001908152602001600020549050818110156125d2576040517f08c379a00000000000000000000000000000000000000000000000000000000081526004016125c990613608565b60405180910390fd5b8181036000808673ffffffffffffffffffffffffffffffffffffffff1673ffffffffffffffffffffffffffffffffffffffff16815260200190815260200160002081905550816000808573ffffffffffffffffffffffffffffffffffffffff1673ffffffffffffffffffffffffffffffffffffffff168152602001908152602001600020600082825461266591906137c5565b925050819055508273ffffffffffffffffffffffffffffffffffffffff168473ffffffffffffffffffffffffffffffffffffffff167fddf252ad1be2c89b69c2b068fc378daa952ba7f163c4a11628f55a4df523b3ef846040516126c99190613768565b60405180910390a36126dc848484612e41565b50505050565b6126ec8282611878565b6127bf5760016005600084815260200190815260200160002060000160008373ffffffffffffffffffffffffffffffffffffffff1673ffffffffffffffffffffffffffffffffffffffff16815260200190815260200160002060006101000a81548160ff021916908315150217905550612764611fb0565b73ffffffffffffffffffffffffffffffffffffffff168173ffffffffffffffffffffffffffffffffffffffff16837f2f8788117e7eff1d82e926ec794901d17c78024a50270940304540a733656f0d60405160405180910390a45b5050565b6127cd8282611878565b156128a15760006005600084815260200190815260200160002060000160008373ffffffffffffffffffffffffffffffffffffffff1673ffffffffffffffffffffffffffffffffffffffff16815260200190815260200160002060006101000a81548160ff021916908315150217905550612846611fb0565b73ffffffffffffffffffffffffffffffffffffffff168173ffffffffffffffffffffffffffffffffffffffff16837ff6391f5c32d9c69d2a47ea670b442974b53935d1edc7fd64eb21e047a839171b60405160405180910390a45b5050565b600073ffffffffffffffffffffffffffffffffffffffff168273ffffffffffffffffffffffffffffffffffffffff161415612915576040517f08c379a000000000000000000000000000000000000000000000000000000000815260040161290c90613668565b60405180910390fd5b61292182600083612e3c565b60008060008473ffffffffffffffffffffffffffffffffffffffff1673ffffffffffffffffffffffffffffffffffffffff168152602001908152602001600020549050818110156129a7576040517f08c379a000000000000000000000000000000000000000000000000000000000815260040161299e90613528565b60405180910390fd5b8181036000808573ffffffffffffffffffffffffffffffffffffffff1673ffffffffffffffffffffffffffffffffffffffff1681526020019081526020016000208190555081600260008282546129fe91906138a6565b92505081905550600073ffffffffffffffffffffffffffffffffffffffff168373ffffffffffffffffffffffffffffffffffffffff167fddf252ad1be2c89b69c2b068fc378daa952ba7f163c4a11628f55a4df523b3ef84604051612a639190613768565b60405180910390a3612a7783600084612e41565b505050565b6000600660009054906101000a900473ffffffffffffffffffffffffffffffffffffffff16905081600660006101000a81548173ffffffffffffffffffffffffffffffffffffffff021916908373ffffffffffffffffffffffffffffffffffffffff1602179055508173ffffffffffffffffffffffffffffffffffffffff168173ffffffffffffffffffffffffffffffffffffffff167f8be0079c531659141344cd1fd0a4f28419497f9722a3daafe3b4186f6b6457e060405160405180910390a35050565b606060006002836002612b55919061384c565b612b5f91906137c5565b67ffffffffffffffff811115612b9e577f4e487b7100000000000000000000000000000000000000000000000000000000600052604160045260246000fd5b6040519080825280601f01601f191660200182016040528015612bd05781602001600182028036833780820191505090505b5090507f300000000000000000000000000000000000000000000000000000000000000081600081518110612c2e577f4e487b7100000000000000000000000000000000000000000000000000000000600052603260045260246000fd5b60200101907effffffffffffffffffffffffffffffffffffffffffffffffffffffffffffff1916908160001a9053507f780000000000000000000000000000000000000000000000000000000000000081600181518110612cb8577f4e487b7100000000000000000000000000000000000000000000000000000000600052603260045260246000fd5b60200101907effffffffffffffffffffffffffffffffffffffffffffffffffffffffffffff1916908160001a90535060006001846002612cf8919061384c565b612d0291906137c5565b90505b6001811115612dee577f3031323334353637383961626364656600000000000000000000000000000000600f861660108110612d6a577f4e487b7100000000000000000000000000000000000000000000000000000000600052603260045260246000fd5b1a60f81b828281518110612da7577f4e487b7100000000000000000000000000000000000000000000000000000000600052603260045260246000fd5b60200101907effffffffffffffffffffffffffffffffffffffffffffffffffffffffffffff1916908160001a905350600485901c945080612de790613998565b9050612d05565b5060008414612e32576040517f08c379a0000000000000000000000000000000000000000000000000000000008152600401612e29906134c8565b60405180910390fd5b8091505092915050565b505050565b505050565b600081359050612e5581613fe3565b92915050565b600081359050612e6a81613ffa565b92915050565b600081359050612e7f81614011565b92915050565b600081359050612e9481614028565b92915050565b600060208284031215612eac57600080fd5b6000612eba84828501612e46565b91505092915050565b60008060408385031215612ed657600080fd5b6000612ee485828601612e46565b9250506020612ef585828601612e46565b9150509250929050565b600080600060608486031215612f1457600080fd5b6000612f2286828701612e46565b9350506020612f3386828701612e46565b9250506040612f4486828701612e85565b9150509250925092565b60008060408385031215612f6157600080fd5b6000612f6f85828601612e46565b9250506020612f8085828601612e85565b9150509250929050565b600060208284031215612f9c57600080fd5b6000612faa84828501612e5b565b91505092915050565b60008060408385031215612fc657600080fd5b6000612fd485828601612e5b565b9250506020612fe585828601612e46565b9150509250929050565b60006020828403121561300157600080fd5b600061300f84828501612e70565b91505092915050565b60006020828403121561302a57600080fd5b600061303884828501612e85565b91505092915050565b61304a816138da565b82525050565b613059816138ec565b82525050565b613068816138f8565b82525050565b60006130798261379e565b61308381856137a9565b9350613093818560208601613965565b61309c81613a81565b840191505092915050565b60006130b28261379e565b6130bc81856137ba565b93506130cc818560208601613965565b80840191505092915050565b60006130e56020836137a9565b91506130f082613a92565b602082019050919050565b60006131086023836137a9565b915061311382613abb565b604082019050919050565b600061312b6012836137a9565b915061313682613b0a565b602082019050919050565b600061314e6022836137a9565b915061315982613b33565b604082019050919050565b6000613171601c836137a9565b915061317c82613b82565b602082019050919050565b60006131946018836137a9565b915061319f82613bab565b602082019050919050565b60006131b76026836137a9565b91506131c282613bd4565b604082019050919050565b60006131da6022836137a9565b91506131e582613c23565b604082019050919050565b60006131fd601d836137a9565b915061320882613c72565b602082019050919050565b6000613220601f836137a9565b915061322b82613c9b565b602082019050919050565b60006132436026836137a9565b915061324e82613cc4565b604082019050919050565b6000613266601b836137a9565b915061327182613d13565b602082019050919050565b60006132896020836137a9565b915061329482613d3c565b602082019050919050565b60006132ac6021836137a9565b91506132b782613d65565b604082019050919050565b60006132cf6025836137a9565b91506132da82613db4565b604082019050919050565b60006132f26024836137a9565b91506132fd82613e03565b604082019050919050565b60006133156021836137a9565b915061332082613e52565b604082019050919050565b60006133386017836137ba565b915061334382613ea1565b601782019050919050565b600061335b6025836137a9565b915061336682613eca565b604082019050919050565b600061337e6011836137ba565b915061338982613f19565b601182019050919050565b60006133a1601d836137a9565b91506133ac82613f42565b602082019050919050565b60006133c4602f836137a9565b91506133cf82613f6b565b604082019050919050565b60006133e7601f836137a9565b91506133f282613fba565b602082019050919050565b6134068161394e565b82525050565b61341581613958565b82525050565b60006134268261332b565b915061343282856130a7565b915061343d82613371565b915061344982846130a7565b91508190509392505050565b600060208201905061346a6000830184613041565b92915050565b60006020820190506134856000830184613050565b92915050565b60006020820190506134a0600083018461305f565b92915050565b600060208201905081810360008301526134c0818461306e565b905092915050565b600060208201905081810360008301526134e1816130d8565b9050919050565b60006020820190508181036000830152613501816130fb565b9050919050565b600060208201905081810360008301526135218161311e565b9050919050565b6000602082019050818103600083015261354181613141565b9050919050565b6000602082019050818103600083015261356181613164565b9050919050565b6000602082019050818103600083015261358181613187565b9050919050565b600060208201905081810360008301526135a1816131aa565b9050919050565b600060208201905081810360008301526135c1816131cd565b9050919050565b600060208201905081810360008301526135e1816131f0565b9050919050565b6000602082019050818103600083015261360181613213565b9050919050565b6000602082019050818103600083015261362181613236565b9050919050565b6000602082019050818103600083015261364181613259565b9050919050565b600060208201905081810360008301526136618161327c565b9050919050565b600060208201905081810360008301526136818161329f565b9050919050565b600060208201905081810360008301526136a1816132c2565b9050919050565b600060208201905081810360008301526136c1816132e5565b9050919050565b600060208201905081810360008301526136e181613308565b9050919050565b600060208201905081810360008301526137018161334e565b9050919050565b6000602082019050818103600083015261372181613394565b9050919050565b60006020820190508181036000830152613741816133b7565b9050919050565b60006020820190508181036000830152613761816133da565b9050919050565b600060208201905061377d60008301846133fd565b92915050565b6000602082019050613798600083018461340c565b92915050565b600081519050919050565b600082825260208201905092915050565b600081905092915050565b60006137d08261394e565b91506137db8361394e565b9250827fffffffffffffffffffffffffffffffffffffffffffffffffffffffffffffffff038211156138105761380f6139f4565b5b828201905092915050565b60006138268261394e565b91506138318361394e565b92508261384157613840613a23565b5b828204905092915050565b60006138578261394e565b91506138628361394e565b9250817fffffffffffffffffffffffffffffffffffffffffffffffffffffffffffffffff048311821515161561389b5761389a6139f4565b5b828202905092915050565b60006138b18261394e565b91506138bc8361394e565b9250828210156138cf576138ce6139f4565b5b828203905092915050565b60006138e58261392e565b9050919050565b60008115159050919050565b6000819050919050565b60007fffffffff0000000000000000000000000000000000000000000000000000000082169050919050565b600073ffffffffffffffffffffffffffffffffffffffff82169050919050565b6000819050919050565b600060ff82169050919050565b60005b83811015613983578082015181840152602081019050613968565b83811115613992576000848401525b50505050565b60006139a38261394e565b915060008214156139b7576139b66139f4565b5b600182039050919050565b600060028204905060018216806139da57607f821691505b602082108114156139ee576139ed613a52565b5b50919050565b7f4e487b7100000000000000000000000000000000000000000000000000000000600052601160045260246000fd5b7f4e487b7100000000000000000000000000000000000000000000000000000000600052601260045260246000fd5b7f4e487b7100000000000000000000000000000000000000000000000000000000600052602260045260246000fd5b6000601f19601f8301169050919050565b7f537472696e67733a20686578206c656e67746820696e73756666696369656e74600082015250565b7f45524332303a207472616e7366657220746f20746865207a65726f206164647260008201527f6573730000000000000000000000000000000000000000000000000000000000602082015250565b7f4e6f20746f6b656e7320746f20636c61696d0000000000000000000000000000600082015250565b7f45524332303a206275726e20616d6f756e7420657863656564732062616c616e60008201527f6365000000000000000000000000000000000000000000000000000000000000602082015250565b7f5465616d20746f6b656e7320617265207374696c6c206c6f636b656400000000600082015250565b7f4e6f207465616d20746f6b656e7320746f20756e6c6f636b0000000000000000600082015250565b7f4f776e61626c653a206e6577206f776e657220697320746865207a65726f206160008201527f6464726573730000000000000000000000000000000000000000000000000000602082015250565b7f45524332303a20617070726f766520746f20746865207a65726f20616464726560008201527f7373000000000000000000000000000000000000000000000000000000000000602082015250565b7f45524332303a20696e73756666696369656e7420616c6c6f77616e6365000000600082015250565b7f41647669736f7220746f6b656e7320617265207374696c6c206c6f636b656400600082015250565b7f45524332303a207472616e7366657220616d6f756e742065786365656473206260008201527f616c616e63650000000000000000000000000000000000000000000000000000602082015250565b7f4e6f2061647669736f7220746f6b656e7320746f20756e6c6f636b0000000000600082015250565b7f4f776e61626c653a2063616c6c6572206973206e6f7420746865206f776e6572600082015250565b7f45524332303a206275726e2066726f6d20746865207a65726f2061646472657360008201527f7300000000000000000000000000000000000000000000000000000000000000602082015250565b7f45524332303a207472616e736665722066726f6d20746865207a65726f20616460008201527f6472657373000000000000000000000000000000000000000000000000000000602082015250565b7f45524332303a20617070726f76652066726f6d20746865207a65726f2061646460008201527f7265737300000000000000000000000000000000000000000000000000000000602082015250565b7f436f6d6d756e69747920746f6b656e7320617265207374696c6c206c6f636b6560008201527f6400000000000000000000000000000000000000000000000000000000000000602082015250565b7f416363657373436f6e74726f6c3a206163636f756e7420000000000000000000600082015250565b7f45524332303a2064656372656173656420616c6c6f77616e63652062656c6f7760008201527f207a65726f000000000000000000000000000000000000000000000000000000602082015250565b7f206973206d697373696e6720726f6c6520000000000000000000000000000000600082015250565b7f4e6f20636f6d6d756e69747920746f6b656e7320746f20756e6c6f636b000000600082015250565b7f416363657373436f6e74726f6c3a2063616e206f6e6c792072656e6f756e636560008201527f20726f6c657320666f722073656c660000000000000000000000000000000000602082015250565b7f45524332303a206d696e7420746f20746865207a65726f206164647265737300600082015250565b613fec816138da565b8114613ff757600080fd5b50565b614003816138f8565b811461400e57600080fd5b50565b61401a81613902565b811461402557600080fd5b50565b6140318161394e565b811461403c57600080fd5b5056fea26469706673582212201033a68823d7a6fb24921cc87571c4d78116c5ed27a9911d4973ad2fdbf58d8464736f6c63430008040033",
  "linkReferences": {},
  "deployedLinkReferences": {}
}